:020000041000EA
:1000000000B52F4B212058609868022188439860E2
:10001000D860186158612B4B002199600221596109
:100020000121F02299502849196001219960352059
:1000300000F03EF80222904214D00621196600F02A
:100040002EF8196E01211966002018661A6600F054
:1000500026F8196E196E196E052000F029F8012195
:100060000842F9D1002199601849196000215960AE
:1000700017491848016001219960EB211966A021F8
:10008000196600F00CF800219960134911480160CD
:100090000121996001BC002800D11048004703B538
:1000A000996A04200142FBD001200142F8D103BD2E
:1000B00002B518661866FFF7F2FF186E186E02BDDB
:1000C00000000240000000180000070000035F006D
:1000D00021220000F4000018222000A001010010DD
:1000E0000000000000000000000000000000000010
:1000F0000000000000000000000000003E272A6011
:10010000274800E000202749886006C881F3088856
:10011000104725480068002839D112A40ECC0029C8
:1001200002D000F012F8F9E72049214A002000E04F
:1001300001C19142FCD11F4988471F4988471F4987
:10014000884700BEFDE701C901C29A42FBD3704750
:10015000F2EB8871805A0010985A00106401001068
:1001600090A31AE7985A0010C00000209C0A0020B3
:100170007464001000000420000004207464001067
:1001800000100420001004200000000070470C48FC
:1001900002F058FD0047EFF30580C0B27047000041
:1001A0000002001000ED00E0000000D0A00A0020D6
:1001B000700D002041120010AD0300104913001013
:1001C0005756000006005250ABB36053405A00101F
:1001D00006005250861C0302505A0010060052506E
:1001E0005422A29D585A001005005250DE65F46852
:1001F0007464001000000000000000000000000017
:100200000020042013010010C3020010C5020010DA
:10021000C1020010C1020010C1020010C102001092
:10022000C1020010C1020010C1020010C70200107C
:10023000C1020010C1020010C9020010CB02001060
:10024000CD020010CD020010CD020010CD02001032
:10025000CD020010CD020010CD020010CD02001022
:10026000CD020010CD020010CD020010CD02001012
:10027000CD020010CD020010CD020010CD02001002
:10028000CD020010CD020010CD020010CD020010F2
:10029000CD020010CD020010CD020010CD020010E2
:1002A000CD020010CD020010CD020010CD020010D2
:1002B000CD020010CD020010CD020010CD020010C2
:1002C00000BE00BE00BE00BE00BE00BEFFF763FF62
:1002D000103800BEF8B5C04610B5064C2378002B88
:1002E00007D1054B002B02D0044800E000BF0123DA
:1002F000237010BDA80A002000000000604E00100E
:10030000044B10B5002B03D00349044800E000BFA4
:1003100010BDC04600000000AC0A0020604E001076
:1003200010B5174AA4231021D150164C164A174B6A
:100330002068616802F038FF206061600022144B81
:1003400002F044FF134A144B02F040FF03F00CF894
:100350000022124B02F028FF00220D4B02F036FF64
:1003600000220F4B02F032FF02F0DCFF00040D4BC5
:100370001B685840000C00040B4B186010BDC046B1
:1003800000000540A00A0020FCA9F1D24D62503FB8
:100390000000E03F6E861BF0F92109400000F03FAD
:1003A000E0FFEF405C0005405C100540F0B587B011
:1003B0000421192000F030F8134C1025A423E55037
:1003C000124B1D601249042001F0FEF901210420A6
:1003D00001F0EAF96B4600210091596099605D6077
:1003E0000C4A9A6003AA1000E0CBE0C040230493BB
:1003F0002165A165E165059B2366049B6365012377
:10040000039A13432365FEE700000540A82005403A
:1004100021030010FFFF000010B58300084A944636
:1004200063441C6840226240C02414408022520170
:1004300013431C60C000034B9C466044416010BDE8
:1004400004C0014000400140EFF3108072B6034B3E
:100450001B68002BFBD0BFF35F8F70472C0100D0CF
:10046000BFF35F8F024B00221A6080F31088704741
:100470002C0100D0F8B505000C001600FFF7E4FFD2
:10048000E308EF18EA5C072323401100D940C907AD
:1004900006D4012199400A433A70FFF7E1FFF8BD05
:1004A0002100300000F072FF002307E0054A9A188F
:1004B0009200BFF35F8F0021116001331F2BF5D92C
:1004C0007047C04640000034054A1078431CDBB238
:1004D0001370172B02D9130010221A707047C046F0
:1004E000D0010020034B1B6802201840431E984196
:1004F000C0B2704700C0064010B5002922D0036882
:100500001B7B99421ED8174B9C46614409018368A6
:100510009C4661440C684968002A19D003681B7B1B
:100520009A4215D883680F488446624412019A188B
:1005300010685368020001208B4201D80ED00020C1
:10054000C0B210BD084B094A3F21094800F000FF26
:10055000054B064A3F21064800F0FAFEA242EFD8BA
:10056000EDE7C046FFFFFF0F604E00107C5000100B
:10057000844E001010B500291ED0037B99421BD871
:100580004B005B18033B0468A4466344002919D060
:10059000002A1DD0914221D0002A25D0047BA242FE
:1005A00022D8046850008018033820188170197808
:1005B00000291FD11A7010BD104B114A4D2111484E
:1005C00000F0C6FE104B114A53310E4800F0C0FE39
:1005D0000F4B0E4A54210B4800F0BAFE0D4B0B4A4C
:1005E0005521084800F0B4FE044B054A4D2105484A
:1005F00000F0AEFE41701A70DDE7C046C04E00103C
:100600003C500010DC4E00101C4F00101C5000101D
:10061000284F0010344F001070B506000D00140074
:10062000002914D0002A14D08068736898470028E5
:1006300006D0220029003000FFF79CFF280007E0C9
:100640002A0021003000FFF795FF200000E0100095
:1006500070BD0800FCE70000F0B5CE4600B582B0E2
:100660000500009201930A9C0BAB1B789946002C65
:1006700029D00268E3B2517B8B4209D10123002BC0
:100680001BD1002C39D1200002B080BCB946F0BD8E
:10069000002B0CD0117B8B4209D811685A00D3185B
:1006A000033BCB189B78002BE9D00123E7E7404BB5
:1006B000404A4D21404800F04BFE404B404A5521F6
:1006C000404800F045FE03689C7B002CD9D00ED03A
:1006D0001A7B94420BD862001219033A19688C46AF
:1006E000624452789A73002ACBD1DA73C9E7304B4F
:1006F000304A4D21304800F02BFEE7B2002F40D0A9
:100700002B681B7B9F423CD82F4BFB181B01AA6810
:1007100094466344009A1A60019A5A60089A9A6053
:10072000099ADA60D0231B06802212035A612E68D0
:10073000002F2CD031D0337B9F422ED87B00DB1989
:10074000033B32689446634400229A705A701A70D0
:10075000717B3A003000FFF75FFF7073A04200D05A
:1007600091E7287D009A019B00F09EFA061E02D0B8
:100770004B46002B17D00C9B002B00D183E71E703B
:1007800081E7124B124A3F210E4800F0E1FD114B68
:10079000114A7721084800F0DBFD054B054A4D2141
:1007A000054800F0D5FD2868390000F0CDFCE2E7EF
:1007B000C04E00103C500010DC4E00104C4F00109A
:1007C00048500010844E0010FFFFFF0F604E0010D5
:1007D0007C500010704F001030500010F0B5DE4615
:1007E00057464E464546E0B58BB009900023089326
:1007F0008200A84BD65837004CE0A74BA74A3F21B0
:10080000A74800F0A5FD002901D1002868D10121E9
:10081000404600F08FFCA04219D12A686B6806920E
:100820000793AB689846EB689A464346002B14D072
:10083000002C18D03B681B7B9C4214D8631EFA68BE
:10084000D35C08931B0218433861002015E0954BD8
:10085000954A7D21924800F07BFD944B924A81217C
:100860008F4800F075FD8C4B914A44218C4800F074
:100870006FFD00239A46984600207B68BFF35F8F88
:1008800000221A6086F310884346002B31D10028DD
:1008900000D1F8E000F0B4F902000B0000200021C4
:1008A000069007917868EFF3108672B60168002908
:1008B000FCD0BFF35F8F396888464C7B002CD8D0C2
:1008C0009BD0097B8C4298D87A4965182D01B9686C
:1008D0008C46654428686968801A9941002992DD30
:1008E0002A686B68099800F0DFF900239A46984659
:1008F000C3E7D0231B06802292035A61802109039B
:1009000099619A61089B1B0223439946514618003E
:10091000C04705000E007A68EFF3108B72B61368BB
:1009200059424B41D9B2002BF9D1BFF35F8F002E52
:1009300023DB002E47DD3B69002B48D04B4567D1B8
:1009400000F05EF902000B0001001800521973411B
:10095000984202D804D1914202D901225242D317BF
:1009600000210491013103910294514601914146C5
:1009700000913800FFF770FE41E03B69002BD8D0B2
:100980004B451AD1069A079B10001900521BB34120
:10099000994202D804D1904202D901225242D3177F
:1009A0000021049101310391029451460191414685
:1009B00000913800FFF750FE21E03F4B3A4A932167
:1009C000374800F0C5FC002E01D1002DB3D13A68A4
:1009D000002C39D0537B9C4220D10121002933D1F6
:1009E000D37B002B36D1D473002C46D03B681B7BC5
:1009F0009C4242D8FA68013C135D01331355002331
:100A00003B617A68BFF35F8F13608BF3108841E717
:100A1000294B254A9621224800F09AFC002C0DD043
:100A2000137B9C420AD863001B19033B1068844661
:100A300063449B78002BD1D00121CFE71F4B204A84
:100A40004D21204800F084FC1F4B204A8F211D4877
:100A500000F07EFC002B0AD0117B8B4207D8590096
:100A6000CB18033B11688C4663445C70BBE7134BA7
:100A7000134A4D21134800F06BFC074B0C4A4421EC
:100A8000074800F065FC0BB0F0BCBB46B246A94677
:100A9000A046F0BD480B0020604E00107C500010B6
:100AA000844E0010744F0010605000108C4F0010E6
:100AB000F44F0010FFFFFF0F984F0010C04E0010C2
:100AC0003C500010DC4E0010D44F001008500010B5
:100AD00070B505000E0000F087F8280000F04CF912
:100AE0001249280000F098F8182003F0CDFB04000C
:100AF000FFF7EAFC0E4B9C466044800060602200D9
:100B00000C49300000F028FA20601021300003F07A
:100B1000BFFBA0600121300003F0BAFBE060257547
:100B2000AD00054BEC50200070BDC046DD07001045
:100B300040000034F9040010480B002010B5064BAB
:100B40001B68002B00D010BD10210320FFF7C0FF51
:100B5000014B1860F7E7C046340B002070B5EFF387
:100B600005833F2018401038EFF3108C72B6194BF4
:100B70001B68002BFBD0BFF35F8F0123190081405E
:100B8000154A5163154A12781400C440234214D008
:100B9000114B5C6A8300124D5B599C4206D3830063
:100BA000104C1B598A430D490A7007E00A4A031D7D
:100BB0009B0099589950002300E00023BFF35F8FFA
:100BC000044A002111608CF31088002B00D0984754
:100BD00070BDC046280100D0004005406E0D0020C9
:100BE0005C0D0020FC0A002010B50100024A0348F9
:100BF000FFF740FC10BDC046885000106C0D00206F
:100C0000044B5B6A034A906A1900536A9942F9D10E
:100C10007047C0460040054070B504000D00EFF37A
:100C2000108672B61B4B1B68002BFBD0BFF35F8F87
:100C3000002D1CD0200000F0BFFD174B83420BD0CD
:100C40001900200000F0C0FD0121200000F0ACFDE3
:100C50000123A340114A1360A400114BE550BFF3D8
:100C60005F8F0C4B00221A6086F3108870BDA200C3
:100C70000B4B0021D1500122A2400A490B7893432B
:100C80000B700549200000F0C9FD0021200000F094
:100C90008BFDE4E7280100D05D0B001038600540B3
:100CA000FC0A00206E0D0020F0B5DE4600B584B0D1
:100CB0000400150001921E000293FFF7A1FF0395A7
:100CC0008E4202D844D1854242D9EFF3108B72B6DE
:100CD000224B1B68002BFBD0BFF35F8F0125A54083
:100CE0001F4B5D63EFB21F490A783A430A70221D19
:100CF00092000199D150A4001B4A0299A1501B6A8D
:100D00002B4212D1164B1B6C2B4208D00020BFF394
:100D10005F8F124B00221A608BF3108819E0134B7F
:100D2000134AB221134800F013FBFFF769FF8E420C
:100D30000CD802D1039B834208D8094B1D625D6326
:100D4000084A1378BB4313700120E0E70020DEE778
:100D5000012004B080BCBB46F0BDC046280100D0D5
:100D6000004005406E0D00205C0D0020AC500010CE
:100D700008510010D0500010EFF3108C72B60B4BDE
:100D80001B68002BFBD0BFF35F8F01238340084A11
:100D9000136208490A789A430A70BFF35F8F034BC6
:100DA00000221A608CF310887047C046280100D0DA
:100DB000004005406E0D002010B51F2905D8064BD8
:100DC0009C4661448900016010BD044B044A0A211D
:100DD000044800F0BDFAC046400000342451001021
:100DE000845100105051001010B50400FFF76CFB47
:100DF00001002000FFF7E0FFBFF35F8F10BD000090
:100E000010B500291ED0037B99421BD84B005B18FC
:100E1000033B0468A4466344002919D0002A1DD06E
:100E2000914221D0002A25D0047BA24222D8046816
:100E300050008018033820188170197800291FD1BC
:100E40001A7010BD104B114A4D21114800F080FA64
:100E5000104B114A53310E4800F07AFA0F4B0E4AEC
:100E600054210B4800F074FA0D4B0B4A55210848E9
:100E700000F06EFA044B054A4D21054800F068FA6F
:100E800041701A70DDE7C046C04E0010E4520010F9
:100E9000DC4E00101C4F0010D0520010284F0010E4
:100EA000344F001070B506000D001400002914D056
:100EB000002A14D0806873689847002806D0220062
:100EC00029003000FFF79CFF280007E02A002100DE
:100ED0003000FFF795FF200000E0100070BD080013
:100EE000FCE7000010B50023437301338373037BD9
:100EF000C3730121037B8B4215D9CBB2002B0CD0DD
:100F0000027B934209D85A00D218033A0468A446D7
:100F10006244013353700131ECE70C4B0C4A4D2114
:100F20000C4800F015FA002B09D09B4207D8016845
:100F30005A00D318033BCB1800225A7010BD034B44
:100F4000034A4D21034800F003FAC046C04E00108A
:100F5000E4520010DC4E0010F8B505000F0016003A
:100F60001021012003F094F9040005734760032168
:100F7000280003F08DF92060A6602000FFF7B2FF83
:100F80002000F8BD70B50400081E00D170BD002916
:100F900034D0237B994231D84B005B18033B226845
:100FA000944663445A78002AF0D02DD0237B9A428D
:100FB0002AD853009B18033B21688C4663445D7814
:100FC00000215970002825D0237B984222D8430065
:100FD0001B18033B21688C466344002159700100B3
:100FE0002000FFF75FFF060029002000FFF7CAFF7F
:100FF000020031002000FFF755FFC7E7084B094A00
:101000004D21094800F0A4F9054B064A4D21064838
:1010100000F09EF9024B034A4D21034800F098F975
:10102000C04E0010E4520010DC4E001070B50500F8
:101030000C001600002928D02DD0037B99422AD815
:101040004B005B18033B0268944663445A78002ABD
:1010500027D19A78002A2AD11978FFF793FF030045
:10106000002E03D1EA7B002A27D1EC73002B37D165
:10107000002C49D02B7B9C4246D82B6861000C1970
:10108000033C1C190023637070BD224B224A33219C
:10109000224800F05DF9224B224A4D21224800F0FF
:1010A00057F9224B1C4A35211C4800F051F9204BBE
:1010B000194A3621194800F04BF9002A0AD0297B39
:1010C0008A4207D851008A18033A29688C4662443C
:1010D0005470CAE7124B134A4D21134800F038F9F7
:1010E000002B0BD02A7B934208D843001B18033BEC
:1010F0002A689446634400229A70B9E7084B094A6B
:101100004D21094800F024F9054B064A4D210648B7
:1011100000F01EF904520010BC5200100C520010D6
:10112000C04E0010E4520010DC4E00103C52001083
:101130006452001070B504000A00457B2900FFF7D7
:1011400075FF6073280070BD70B50400002967D07A
:10115000437B8B420ED0002911D0037B99420ED8DD
:101160004B005B18033B0268D0188378002B0CD12E
:10117000002056E00021FFF7DDFF012051E0294B60
:10118000294A4D21294800F0E3F8002B20D0227B8A
:1011900093421DD85A00D318033B2268D218256801
:1011A000EB5C8B421AD0002B1BD0227B934218D8C9
:1011B0005A00D318033B2268D21853788B4216D0BA
:1011C000002BF0D11A4B1B4A63211B4800F0C0F8DA
:1011D000144B154A4D21154800F0BAF843781370A6
:1011E00007E0104B104A4D21104800F0B1F8437849
:1011F000537000238370437000222000FFF716FF16
:101200000200617B814205D02000FFF74BFE607336
:10121000012006E0094B074A6921074800F098F8C9
:10122000002070BDC04E0010E4520010DC4E0010D3
:1012300088520010B05200100C5200109052001052
:1012400070B5234B234A1A60234B244A1A60244B5F
:101250009A68224B9343FAD1224C01E008CC98477C
:10126000214B9C42FAD300F01DF91B4B1F4A1A6018
:101270001B4B9B68DB43DB01FAD11D4B40229A6775
:101280005A671A67DA661B4C03E02000FFF7ACFDD3
:101290000834194B9C42F8D3184CA168184DC02251
:1012A000280003F007F8A560EFF30383FF221A423A
:1012B00000D000BEFFF7F8F800F01AFCFFF73EFC84
:1012C000104C01E008CC98470F4B9C42FAD370BDFC
:1012D00000E00040BFCDFFFF00F00040FE7F3C007B
:1012E00000C00040880A0020980A0020FFFFFF018C
:1012F00000F00140800A0020880A002000ED00E094
:1013000000000020980A00209C0A002000BEFDE793
:1013100003000A4A1268002A08D0084A1068C31855
:10132000074A934206D2054A13607047034A0549AB
:101330001160F2E701204042F7E7C046440B00206D
:1013400000000420700D002010B5FFF7DFFF000043
:1013500010B582B00C001900002A0CD0084B002AEE
:101360000BD00192009323000200064803F0BAF864
:101370000120FFF7CBFF044BF1E7034AF1E7C0463A
:10138000F052001000530010FC5200100FB400B5D2
:1013900083B0084803F076F8049B002B07D005A91A
:1013A0000191180003F07CF8034803F06BF801206A
:1013B000FFF7ACFF3053001040530010F8B5D6468D
:1013C000474680B506000D001700089A934243D3A4
:1013D000190E1802089A002301F0D2FC804674000E
:1013E000A419A4002A4B9C4664446368834200D23B
:1013F0006060331FDBB29A46012B33D9C0239B01B7
:101400002343802212011A60B300224A995800290E
:1014100005D0506901F06EFC01300138FDD17F012B
:1014200022685740E022174080235B0123431F605E
:101430005246012A21D980239B0123438022120195
:101440001A6043466360B600124B089AF2500120BE
:10145000C0BCBA46B046F8BD0F4B104A2E2110480A
:10146000FFF776FF012DC9D1C0239B01234303223F
:101470001A60A368DB07FCD5D1E721686940032225
:101480000A401A60A2680123AB401342FAD0D2E7A7
:10149000008000400C0B00204453001090530010BB
:1014A0005853001030B583B00C2000F08DF8FFF7D2
:1014B00019F800280DD0002304E09900334A34487D
:1014C00088500133092BF8D9304B324A5A6203B0A5
:1014D00030BD314B00229A6700F07EF82F4B01227D
:1014E0001A602D4B5B6C012BFBD12D4B03221A6034
:1014F000294B9B6B012BFBD1C0239B01294A136015
:10150000294A1360294B9A68C0239B019343F9D160
:10151000022400940633264A0121264800F070F880
:1015200000940523244A0121244800F069F8244B43
:101530000093002202210420FFF740FF214D009577
:101540002B00002201210520FFF738FF104C0094EA
:101550002300002200210720FFF730FF0094230022
:10156000002200210820FFF729FF0A4B00932300E7
:10157000002200210920FFF721FF00952B00002207
:1015800000210620FFF71AFFA1E7C0460C0B002040
:10159000006CDC021BB70000008000403CB0004043
:1015A00030B0004000E0004000F0004000C00040CB
:1015B000002F68590080024000389C1C00C0024087
:1015C000001BB7004059730780239B000343014A67
:1015D000D362704700800540064BAA2212011A60B0
:1015E0002F22DA60044B054A1A60024B5B68002B1D
:1015F000FBDA7047004002400060024000B0FA0091
:10160000F8B5CE46474680B50400894690461D0091
:1016100008AB1F7801235B424360002383600C20EA
:1016200001F068FB06004B46236043011B1A990139
:10163000C91AC90009188901404601F05BFB020084
:10164000103A98235B009A4220D86B1E062B23D8B1
:101650007B1EDBB2062B1FD8AF4223D843461A09A4
:10166000B24225D3A060221DC0239B011343212237
:101670001A602268002AFCDA2D043F033D43E5602E
:1016800008221A60C0BCB946B046F8BD0B4B0C4AE4
:101690001A210C48FFF75CFE0B4B094A1D21094833
:1016A000FFF756FE094B064A23210648FFF750FE76
:1016B000074B034A27210348FFF74AFEA0530010B7
:1016C00070540010BC530010F05300103C54001034
:1016D00054540010074B9B68103080001950BFF322
:1016E0005F8FBFF35F8F044B0021196082F3108876
:1016F0007047C04600ED00E0240100D010B5091A83
:1017000004394808090B05D14005400D044B184326
:1017100080B210BD034B044A8D210448FFF718FE28
:1017200000E0FFFF7C5400107C5600108C54001029
:1017300010B5091A04394C08090B08D14905490D9F
:10174000064A11430180064B2343438010BD054BDD
:10175000054A95210548FFF7FBFDC04600F0FFFF55
:1017600000F8FFFF7C540010505600108C540010FD
:1017700001238340034A10681840431E9841C0B2B9
:101780007047C04600E100E0002904D0034B186018
:10179000034B18607047034B1860FBE780E200E0E2
:1017A00000E100E080E100E010B501238340180073
:1017B000FFF7EAFF10BD0000024B9B68103080006D
:1017C000C058704700ED00E070B504000D00EFF365
:1017D000108672B60C4B1B68002BFBD0BFF35F8FDB
:1017E0002000FFF7E9FF094B984201D0A84205D13C
:1017F000320029002000FFF76DFF70BD044B054A41
:1018000071210548FFF7A4FD240100D0CD0200108E
:10181000C0540010985600108C540010F0B5CE46FD
:10182000474680B583B006000D00EFF3108872B60E
:101830005A4B1B68002BFBD0BFF35F8F584B9A6845
:1018400034001034A300D758564B9F4207D0AF4204
:1018500000D1A0E00197544BFB1A2F2B09D9424627
:1018600039003000FFF736FF03B0C0BCB946B046C0
:10187000F0BD3000FFF77CFF814600213000FFF70C
:1018800093FFBFF35F8FFEF786FC002801D08442F0
:101890001ED10123019C9C434349611A8A10930085
:1018A0009B1819015B1819025B1819045918490093
:1018B00089180022A368AB4212D00622A256002A41
:1018C0000DDB53009B189B002200374CE418F1E716
:1018D0008E21364B364A49003648FFF739FD220043
:1018E000AB4251D106256557002D39DB6B005B19E2
:1018F0009A002D4B9B189A68A260DA79E271062251
:101900009A56A2719B795BB2002B10DABD200002BF
:10191000A0806B005B199B00234AD318264A1178DC
:101920009971157049463000FFF73EFF97E7201D7B
:101930006B005B199B001C4A9B181A1D9B88D90AD7
:101940001C2907D15B055B15023359005118FFF7BD
:10195000D5FEDDE7194B1A4A9B211648FFF7F8FC24
:1019600000280CD1002A08D0FF239371154B9380D7
:10197000114B1A78A2711970D4E70A4FF8E7201DAD
:101980001149FFF7D5FECDE75221104B084AFF3130
:101990000848FFF7DDFC034F61E7C046240100D093
:1019A00000ED00E0CD020010D4010020D45500105D
:1019B000685600108C5400106D0D0020BC550010AE
:1019C0008856001000BDFFFF0E020020F8550010E1
:1019D00010B5032304009C43064A944664442268DD
:1019E0001840C000FC3383409A43130081400B43EE
:1019F000236010BD00E400E0F8B5040001250543B4
:101A0000304BEB1A2F2B2DD8FEF7C5FB002830D01A
:101A1000EFF3108172B62C4B1B68002BFBD0BFF389
:101A20005F8F284BE31A9E10B20092191301D2184F
:101A30001302D2181304D3185B009B19234A92682F
:101A400080001258AA421BD00020032832D842003E
:101A5000121892001B4DAA18927952B29A421FD0C6
:101A60000130F2E7B7211A4B1A4A49001A48FFF72A
:101A70006FFC7221194B174AFF311748FFF768FCBA
:101A8000124A9268164D1550164A1078A0711370BC
:101A9000BFF35F8F0C4B00221A6081F31088F8BDF2
:101AA0002E0042001518AD007519FF27AF710E48C2
:101AB000A880E9E7C1210D4B064A49000648FFF717
:101AC00047FCC046D4010020240100D000ED00E016
:101AD00000560010345600108C5400102856001088
:101AE000CD0200106D0D002000BDFFFF88520010D8
:101AF00010B5002404E080212000FFF769FF0134C5
:101B00001F2CF8D910BD704710B5002802D00B6803
:101B10004968984710BD0100002007E083001B18AA
:101B20005B00501C08601078C01830380A681378C1
:101B3000303BDBB2092BF1D97047F0B5DE46574692
:101B40004E464546E0B583B093461F000C9B9A462F
:101B50000D9C0E9B99460F9B9B0703D0B8460F0028
:101B6000060022E00192A34688464E46B946070089
:101B7000B44207D2551C4B4641462020B847013499
:101B80002A00F5E73D004F465C46019B9B46B14667
:101B90004646B84637002E0007E0013C551C534628
:101BA000185D43463900B0472A00002CF5D13500B6
:101BB0003E0047460F9B9B0707D4100003B0F0BCC4
:101BC000BB46B246A946A046F0BDB0464E46B94611
:101BD0002F005D46531BB342EFD2541C4B46414687
:101BE0002020B8472200F5E7F0B5CE46474680B53D
:101BF00085B0944698460C9D0D9C0EAB1B7899467B
:101C0000109A119B129EB7071CD4002B0CD0F7071B
:101C10000AD54F46002F02D10C37374204D0013B82
:101C200002E030272F550134944201D21F2CF8D9FD
:101C3000F70707D59C4205D21F2C03D830272F5514
:101C40000134F5E7F70615D5770505D4002C03D048
:101C5000944224D09C4222D00F9A102A2BD00F9A63
:101C6000102A30D00F9A022A35D01F2C02D83022E9
:101C70002A5501341F2C05D84A46002A31D02D227E
:101C80002A55013403960293019400954346624617
:101C9000FFF753FF05B0C0BCB946B046F0BD621EA9
:101CA000012C06D00F9F102F01D01400D4E7023C66
:101CB000D2E71400D0E7B206D1D41F2CCFD87822B7
:101CC0002A550134D1E7B206CCD51F2CCAD85822E8
:101CD0002A550134C9E71F2CC7D860322A55013470
:101CE000C3E7720703D52B222A550134CAE732070E
:101CF000C8D520222A550134C4E7F0B5DE46574640
:101D00004E464546E0B593B081468A46089209930F
:101D10001CAB10CB1B789B461E9D219B9846002C2C
:101D200003D1102342469A4390468023DB00464667
:101D30001E4042461A4212D0002C22D000260EE04D
:101D40003033D9B2771C0AAB99552900200000F036
:101D5000D1FFAC4216D31F2F14D83E000400290037
:101D6000200000F0C7FFCBB2092BE9D9424692060A
:101D700005D54121C918C9B20A39C9B2E2E76121C2
:101D8000F8E7270043460693209B05931F9B049387
:101D900003955B46029301970AAB0093099B089A4F
:101DA00051464846FFF720FF13B0F0BCBB46B24691
:101DB000A946A046F0BDF0B5DE4657464E4645461C
:101DC000E0B595B0089009910A920B931E9E1F9C56
:101DD00020AB1B789B46229B9946239D269B9A46C7
:101DE0003300234303D1103352469A439246802353
:101DF000DB0057461F4052461A4219D03300234396
:101E00002DD0002714E03033DAB27B1C98460CAB9F
:101E1000DA554A462B003000210000F0B1FFA54200
:101E20001FD819D043461F2B1BD8474606000C006D
:101E30004A462B003000210000F0A2FFD3B2092B4C
:101E4000E1D95246920605D54122D218D2B20A3AB9
:101E5000D2B2DAE76122F8E7B145E3D901E0002325
:101E6000984653460693259B0593249B04934B4623
:101E700003935B460293434601930CAB00930B9B89
:101E80000A9A09990898FFF7AFFE15B0F0BCBB4657
:101E9000B246A946A046F0BDF0B5DE4657464E46CE
:101EA0004546E0B591B0824689460E9298461A9C06
:101EB00007941B9D089522002B002000290001F0AB
:101EC000E2F9002800D06FE101225242D94B2000F4
:101ED000290001F0D3F9002800D065E10122524227
:101EE000D54B2000290001F0B3F9002800D05BE1B8
:101EF00000220023079C2000089D290001F0A8F97A
:101F0000002800D067E1079A089B09920693802376
:101F1000DB001E9A1A400F921E9A1A4201D1062324
:101F20001C93099B069A100D4005400DC3498C4631
:101F300060441203120B1E00C14B13431F0001F03B
:101F4000B5F9C04AC04B01F041F9C04AC04B01F09D
:101F50002BF904000D000022BE4B3000390001F0C7
:101F60001AF9BD4ABD4B01F031F902000B00200007
:101F7000290001F019F901F0B1F9834601F096F951
:101F800004000D00B64AB74B01F020F90022B64B11
:101F900001F00AF901F0A2F90600B44AB44B20009E
:101FA000290001F013F904000D000A96300001F039
:101FB0007DF9B04AB04B01F009F902000B00200096
:101FC000290001F0E8F804000D0002000B0001F008
:101FD000FDF806000F000A99A84B9C4661440022B8
:101FE00000230A920B9309050B9100210A9122000C
:101FF0002B002000290001F0D7F80C900D91220051
:102000002B0000208021C90501F0C5F804000D0057
:1020100000229B4B3000390001F0CFF80022994B91
:1020200001F0C2F802000B003000390001F0C5F8E1
:102030000022954B01F0B8F802000B003000390087
:1020400001F0BBF802000B002000290001F0ACF801
:1020500002000B000C980D9901F0AFF80022784BAC
:1020600001F0A2F80A9A0B9B01F0B0F804000D00F1
:102070000A940B95099A069B01F000F900280BD0F1
:1020800001235B429C46E34400227E4B2000290052
:1020900001F093F80A900B915B466333C62B00D98D
:1020A000A0E004241E9B1B0523D5784A784B099E8B
:1020B0003000069D290001F0D9F8002800D196E0F3
:1020C0000022744B3000290001F0C2F8002800D132
:1020D0008DE01C9B5B4500DC86E05A46981A431E47
:1020E0001C938023DB001E9A1A431E9200240023B7
:1020F0009B461D9B9C4200D385E01D1B02231E9E18
:102100001E401E9A134202D0002C00D000255B46D0
:10211000002B07D00A9A0B9B0998069901F04DF8FD
:1021200009900691002200230798089901F090F881
:1021300000286AD1584B1E9A1340049303951C9BA8
:102140000293099A069B0092019343460E9A4946D0
:10215000504600F0A3F8002C36D01E9B9B065BD5A2
:102160004527451C4346020049463800D0475B4698
:10217000DA179B18534005220592013C0494002273
:1021800003920A3202925A46D00F019000934346BE
:102190002A0049465046FFF7B0FD002E14D0020039
:1021A00057460E9E1D9D3FE01E9B04931D9B03936F
:1021B0001C9B0293079A089B0092019343460E9A38
:1021C0004946504600F06AF811B0F0BCBB46B24632
:1021D000A946A046F0BD099480231B069C46654491
:1021E000069594E605245DE700231C9379E71C9B84
:1021F000002B00D17DE70F9B002B00D179E71C9BC2
:10220000013B1C9375E7002578E7069980200006BE
:102210008446614406918DE76527A2E7541C434636
:1022200049462020B8472200931BAB42F6D310004A
:10223000CAE7C046FFFFEF7FFFFFEFFF01FCFFFF94
:102240000000F03FFB799F501344D33FB3C8608B2D
:10225000288AC63F0000F83F61436F63A787D23FDB
:1022600071A379094F930A400000E03F1655B5BBB2
:10227000B16B0240EF39FAFE422EE63FFF03000049
:1022800000002C4000002440000018402D431CEBAF
:10229000E2361A3F80842E41FFF7FFFFF0B5DE469D
:1022A00057464E464546E0B595B006900791934691
:1022B0009946209F1E9A1F9B1000190000F0E3FF13
:1022C000002831D101225242BF4B1E981F9900F0C5
:1022D000BFFF002837D101225242BC4B1E981F99E4
:1022E00000F0CCFF00283DD10022B94B1E981F9969
:1022F00000F0C4FF002850D10022B64B1E981F9951
:1023000000F0A6FF002848D1002200231E981F9944
:1023100000F09EFF002850D100239846229B5B05C9
:1023200000D4B6E0002458E0229B0393219B029343
:1023300003230193A84B00934B465A4607990698EE
:10234000FFF7FBFB0EE1229B0393219B02930423E7
:102350000193A24B00934B465A4607990698FFF704
:10236000ECFBFFE00423229A1A4022990B4210D082
:102370009B4B002A0FD004222299039121990291AC
:10238000019200934B465A4607990698FFF7D5FBF2
:10239000E8E0944BEDE70322EEE7229B0493219BB8
:1023A000039302971E9B1F9C009301944B465A4631
:1023B00007990698FFF770FDD4E01E9A1F9B002036
:1023C000002100F0E8FE1E901F9101239846A5E72A
:1023D0000CAB30221A55013F01341F2C01D8092FB4
:1023E000F6D81E981F9900F079FF050000F05EFFF7
:1023F00002000B001E981F9900F0CDFEFA007A4BE8
:102400009B181A685B680A920B9300F0DFFE089035
:10241000099100F087FF060000F044FF02000B0066
:102420000898099900F0B7FE0890099100226F4BB7
:1024300000F024FF00282ED00136300000F032FFDB
:1024400002000B000A980B9900F008FF002801D049
:1024500001350026002F2CD1280000F027FF0200B4
:102460000B001E981F9900F096FE06000F00002238
:102470005E4B00F0EDFE002846D100225B4B3000A1
:10248000390000F0FBFE00283ED1EB073CD50135BA
:102490003AE0062746E70022544B0898099900F0D5
:1024A000D7FE0028D6D1002E01D0F307D2D50136B1
:1024B000D0E7AA461F2C11D8013F0A21300000F0B6
:1024C00019FC651C30310CAB19550A21300000F0A5
:1024D00011FC092E0ED906002C00EBE755461F2CE7
:1024E0000CD87B1E002F09D00CAA302111551F00DB
:1024F0000134F4E72B0055461C00F0E71F2C03D8ED
:102500000CAB2E221A5501341F2C10D80A2128009A
:1025100000F0C4FB661C30310CAB19550A212800B1
:1025200000F0BCFB051E01D03400EDE734000323AE
:10253000229A1340012B1CD01F2C06D84346002B97
:1025400032D00CAB2D221A550134229B0393219BD0
:10255000029301940CAB00934B465A460799069898
:10256000FFF7EBFA15B0F0BCBB46B246A946A04651
:10257000F0BD219B002B13D04346002B02D10C331E
:1025800013420FD0219B013B2193190003E00CABB8
:1025900030221A5501348C42CED21F2CF7D9CBE70A
:1025A0002199F8E72199F6E7229B5B0704D50CAB4C
:1025B0002B221A550134C8E7229B1B07C5D50CAB4B
:1025C00020221A550134C0E7FFFFEFFFFFFFEF7F26
:1025D00065CDCD4165CDCDC1C0560010C4560010AB
:1025E000B8560010B4560010B05800100000E03F7C
:1025F000F0B5DE4657464E464546E0B593B08246B6
:102600008B4690461193002900D1EBE200275546F6
:10261000119B1878002800D1E7E2252809D07C1CFE
:1026200043463A005946A847119B013311932700AE
:10263000EEE7013311930024119A11780B00203B2F
:10264000D8B2102803D88300D048C3589F460B0047
:10265000303BDBB2092B2CD92A292FD000230A9337
:10266000119B1A782E2A39D000239A46119A137892
:10267000683BD9B2122976D88B00C549CB589F4602
:1026800001231C4301321192D6E702231C4301327D
:102690001192D1E704231C4301321192CCE70823A5
:1026A0001C4301321192C7E710231C4301321192DF
:1026B000C2E711A8FFF72FFA0A90D1E71C9B1A1D59
:1026C0001C921868002804DB0A90119B01331193B7
:1026D000C6E702231C4343420A93F6E78022D20056
:1026E00014435A1C11925A781300303BDBB2092B69
:1026F00004D92A2A07D000239A46B7E711A8FFF782
:102700000AFA8246B2E71C9B1A1D1C921868002820
:1027100004DB8246119B01331193A7E70020F8E701
:1027200080235B002343511C119152786C2A01D005
:102730001C0018E0C0239B001C430131119112E0E2
:1027400080232343511C11915278682A01D01C0028
:1027500009E0C0231C430131119104E080235B0098
:102760001C4301321192119B18780300253BDAB209
:10277000532A00D92CE29300864AD3589F468023DF
:102780009B001C4301321192EDE780235B001C4348
:1027900001321192E7E7782809D0582838D06F28FD
:1027A00038D0622838D010239C430A2600E0102637
:1027B000582833D0692803D0642801D00C229443D0
:1027C000630501D50122944369282AD0642828D0C2
:1027D000A30500D59FE0E30500D5B8E0630600D46B
:1027E000CAE01C9A111D1C911168FF220A40059431
:1027F0000A9B04935346039302960023019300928D
:1028000043463A0059462800FFF777FA070027E0C9
:102810001026CDE70826CBE70226C9E7202214437D
:10282000C8E7A30520D4E30550D4630666D51C9AF7
:10283000111D1C911168FF220A40D317D11859406D
:1028400005940A9B0493534603930296D20F019278
:10285000009143463A0059462800FFF74EFA070018
:10286000119B01331193D3E61C9BDA1D07218A4388
:10287000110008311C91116853689C46DB170C93BA
:102880000D930C9A0D9B100048400E9062465340E9
:102890000F930E980F990C9A0D9B801A99410E90E8
:1028A0000F9108940A9B07935346069304960023BE
:1028B00005936346DA0F02920090019143463A0075
:1028C00059462800FFF777FA0700C9E71C9A111D3F
:1028D0001C911268D317D118594005940A9B049390
:1028E000534603930296D20F0192009143463A0059
:1028F00059462800FFF701FA0700B1E7230605D57E
:102900001C9A111D1C910023D25E96E71C9A111D82
:102910001C91126891E71C9BDA1D07218A43110064
:1029200008311C9108940A9B07935346069304961A
:10293000002305930293136854680093019443465F
:102940003A0059462800FFF736FA070088E71C9A34
:10295000111D1C9105940A9B049353460393029600
:10296000002301931368009343463A005946280018
:10297000FFF7C3F9070073E723060DD51C9A111D55
:102980001C9112681204120C31E7C046CC5600109C
:10299000105700105C5700101C9A111D1C911268F2
:1029A00025E746281AD01C9B0733072293431A00B9
:1029B00008321C9204940A9A0392524602925C686E
:1029C0001B680093019443463A0059462800FFF7DC
:1029D00065FC0700119B0133119319E620231C436A
:1029E000E1E7672801D0472802D180231B011C435F
:1029F000452801D0472801D120231C431C9B0733C5
:102A0000072293431A0008321C9204940A9A0392F4
:102A1000524602925C681B680093019443463A0058
:102A200059462800FFF738FA0700119B013311932C
:102A3000EEE502231A002240924623421FD00124D1
:102A40001C9B1A1D1C927A1C9146187843463A002A
:102A50005946A8475346002B16D1119B01331193B9
:102A60004F46D5E5561C434659462020B84723001B
:102A700032005C1C9D42F5D83D001700E0E70123C1
:102A80003A002F000A9DF4E74A46A9460A9D06E04F
:102A9000571C434659462020C84734003A00661C5C
:102AA000A542F5D84D469146D7E71C9B1A1D1C92AE
:102AB0001B6899465346002B00D1013B4E4601E06E
:102AC000013613003278002A02D05A1E002BF7D1AB
:102AD0004B46F21A10928023DB0026001E401C4257
:102AE00003D0524501D95346109302231A002240C5
:102AF0000B92234205D03A0037004C46A946554672
:102B000020E03A00109B5F46B3462E0006E0551CBD
:102B1000434639002020B04723002A005C1C0A9954
:102B20009942F4D835005E46BB46109437004C46B7
:102B3000A946554606E01D000134561C4346594639
:102B4000C84732002078002804D0002FF4D06B1E34
:102B5000002DF0D117004D460B9B002B03D1119B8C
:102B60000133119354E50A9F109B06E0561C43461F
:102B700059462020A847230032005C1C9F42F5D80C
:102B80001700ECE721231C431C9B1A1D1C921B6899
:102B90000093059408230493534603931023029350
:102BA0000023019343463A0059462800FFF7A5F851
:102BB0000700119B013311932AE57C1C43463A0020
:102BC00059462520A847119B0133119327001FE583
:102BD0007C1C43463A005946A847119B0133119388
:102BE000270015E50A4B9A4610E5AA46474502D349
:102BF00043465A1E00E03A00434659460020D0475B
:102C0000380013B0F0BCBB46B246A946A046F0BDA2
:102C1000071B001000B585B00290039101210093BD
:102C200013004A4202A90248FFF7E2FC05B000BDCA
:102C3000091B001001480421014B18472002002005
:102C4000652C001010B5010018231B881422108871
:102C5000984710BD10B5010018231B881622108854
:102C6000984710BDF0B5C64600B507000E00002518
:102C70000123984600E00135B5420AD2AC003C1968
:102C80002068FFF7DFFF20600028F4D1002398467A
:102C9000F1E7404680BCB846F0BD0000144A936F8F
:102CA0009B0815D29066D166002905D0FFE7FFE7A3
:102CB000FFE7516F106F704704B580210906C217F6
:102CC0005140002800D0C84302F0B2F8002104BDF2
:102CD000936F5B08FDD3F0B5946ED56E576F166F8A
:102CE000FFF7E0FF9466D56657671667F0BD0000F2
:102CF000000000D0134A936F9B0813D210665166F0
:102D0000002905D0FFE7FFE7FFE7516F106F70471D
:102D100004B5002801D00020C04302F089F800214A
:102D200004BDC046936F5B08FDD3F0B5946ED56EBD
:102D3000576F166FFFF7E2FF9466D5665767166701
:102D4000F0BD0000000000D094464E4A926F9208F9
:102D5000624601D230E0C046F0B54A4EB56F6D080C
:102D6000FCD3346E756E776F366F00F025F894469D
:102D7000444A14665566576716676246F0BDC046FA
:102D80009446404A926F9208624601D258E0C0468B
:102D9000F0B53C4EB56F6D08FCD3346E756E776F31
:102DA000366F00F04DF89446364A146655665767FC
:102DB00016676246F0BDC046002B24DB11D0002907
:102DC0003EDA00B5C943404200D1013100F038F885
:102DD000C943404200D10131DB43524200D10133AB
:102DE00000BD002AEBD1002801D1002905D0002028
:102DF000C90FC90701D1C043410800B502F010F85E
:102E00000022002300BD00B500290ADBDB4352424B
:102E100000D1013300F014F8C943404200D1013120
:102E200000BDC943404200D10131DB43524200D1D1
:102E3000013300F005F8DB43524200D1013300BDFD
:102E4000002923D1002B18D1002A0CD0BC460D4FED
:102E500038667A6600210023FFE7FFE7FFE77A6F15
:102E6000386F67467047002801D00748010000B559
:102E700001F0D6FF0022002300BD02000B0000205D
:102E800000217047000000D0FFFFFFFF002B00D0A3
:102E9000BDE0130C26D1002AE7D080B4104F39666C
:102EA0007A66FFE7FFE730B4040C7B6F396F1B04D1
:102EB00023433B66FFE7FFE7FFE7C04684B27B6F33
:102EC0003D6F1B0423433B66FFE7FFE7C04600233B
:102ED0002C042D0C7A6F386F00196941B0BC704713
:102EE000000000D0F0B594460025140E01D1120266
:102EF0000835140F01D112010435940F01D192004D
:102F00000235D40F01D152000135D40B0134254FC5
:102F10007C66254C3C660E0C93B2FFE7FFE7FFE7AB
:102F20003C6F6643360C7703BE467343DF0B5B048E
:102F3000C01AB941130C7343DB18C91ACE08664393
:102F4000360CB64493B273431F0F1B01C01AB9412C
:102F5000130C73431F0B1B05C01AB941860D8F025A
:102F60003E436643360C092D24DB520A7243801A15
:102F70007703460A6643360C16235B1BDE40DF40B0
:102F8000BF1964466643821B704604350633010050
:102F9000D940A840C01900D30131A24206D2002373
:102FA000F0BD0000000000D0FFFFFFFF121B01304A
:102FB000F3D3F1E709277F1BFE406446A2B27243B8
:102FC000801A00D20139220C7243130C1204821AA7
:102FD00099410B007046043513370100F940A840B1
:102FE000801900D30131002B02D1A2420AD2F0BDD8
:102FF000013000D30131121BFAD2013BF8D1A242B9
:1030000000D2F0BD013000D30131121BF7E7F0B55B
:103010001C0C00D080E00CB400251C0A04D11B025B
:10302000160E3343120208351C0B04D11B01160F78
:103030003343120104359C0B04D19B00960F33439C
:1030400092000235DC0B02D192185B4101351C0065
:10305000971864410134464F7C66464C3C660E0C22
:10306000FFE7FFE7FFE7C0463C6F6643360C770398
:10307000BE4697B27743C01B00D20139C01B00D2B5
:1030800001399FB27743C91BC91B170C77437E04D4
:10309000FF0B801BB941CE086643360C0C2D33DB89
:1030A000B644120B1F053A431B0B97B27743C01B64
:1030B00000D201399FB27743C91B170C77433E04F6
:1030C0003F0C801BB941860D8F023E436643292782
:1030D0007F1BFE400C3D7746AF40BF1930BCA2B20B
:1030E000ABB272437343801A9941220C7243130CA2
:1030F0001204801A994102000B000137001BA941FC
:10310000F9D2781E0021F0BD0C277F1BFE407746C8
:103110007F0BAF40FF19E0E700245D1C07D0144F80
:103120007D663966FFE7FFE7FFE7FFE73C6F95B293
:103130009EB265436643401BB141150C1E0C6543AE
:10314000664336042F0C3E432D04401BB141994287
:1031500004D202000B0020000021F0BD01D19042FA
:10316000F7D3801A994101349942F2D3F6E700006F
:10317000000000D0FFFFFFFF44464D4656465F4625
:10318000F0B47047F0BCA046A946B246BB467047B3
:1031900048404140484018B4114B5B68FC460193DD
:1031A00008BD04DF4337001018B40D4B1B68FC4604
:1031B000019308BD00DF4D37001018B4084BDB68E1
:1031C000FC46019308BD0CDF053A001018B4044B0F
:1031D0009B68FC46019308BD08DFA9380010000079
:1031E000580B0020FFB550404240504059404B40E2
:1031F000594000E0FFB5154F4C00640D03D0BC42B0
:1032000004D10C0314D80020090D09055C00640DDD
:1032100003D0BC4204D11C030AD800221B0D1B059D
:1032200001264B4009D44B4003D58B4200D182424A
:10323000FFBD9942FCD19042FFBD0B43DB18034315
:103240001343F5D0C9434918FFBD0000FF07000034
:1032500000B5FFF7CFFF804100BDC04600B5FFF7C6
:10326000C9FF01D9002000BD012000BD00B5FFF756
:10327000B9FF01D9002000BD012000BD00B5FFF756
:10328000B1FF804100BD012040054A00121804D85A
:103290005A00121801D80020704701207047002002
:1032A000704700000021002805D17047C117484031
:1032B000401AFAD0C90713B5064B1B6898470CBCD7
:1032C000441CA2401005120B0349091B09051943B0
:1032D000114310BD580C00201F04000010B54C0015
:1032E000620D8023D218DB00D21A5B057E2A10DD26
:1032F0009E3A13DACC170903490819435242D140C8
:10330000640001341532202A05DAD04008436043B6
:1033100010BD002010BD0846604310BDC80FC01886
:10332000013810BD18B4044B5B6AFC46019308BD1C
:1033300024DF3F3C00100000580B002018B4044B61
:103340001B6EFC46019308BD60DFEF3C00100000DF
:10335000580B0020024A034B00B500F0CDF900BD28
:10336000182D4454FB2119408A0002D3920D092ADA
:1033700008DA18B4064B1B6CFC46019308BD40DF0D
:10338000233E001000B5FFF7E5FF04BC9646F0E7CA
:10339000580B002070B513231C78012C0FD0012C82
:1033A0000FDC022C02DC1D4A1D4B9A6470BD990093
:1033B0001A481B4A885001331F2BF8D9EFE7002326
:1033C000FAE71848FFF746FC05001748FFF742FCEC
:1033D000023803789B007F2B19DD802229001048DA
:1033E00000F068FF022CDCD1104B1A88B5231B02B9
:1033F0009A4209D10E4B1A880E4B9A4204D10E4BB9
:103400001A880E4B9A42CCD00020FDF7BFFF0C4B20
:103410000C4A30210C48FDF79BFFC04609370010CD
:10342000580B00205344000053460000543800005D
:10343000D8380000494600009C380000594600007A
:1034400000590010A059001060590010F0B5DE4678
:1034500057464E464546E0B585B004000D00009243
:1034600001930E9B9A46002B09DD019B1911012047
:103470004042FFF73FFC039000239B462CE00023D3
:103480000393F9E70C239946AB11039A53431D228A
:103490004946521A134101335B109846202252428A
:1034A0008B1821D422009A40170023004A469340EB
:1034B0001E004346D917009A019B404600F032FE99
:1034C00034003D00241A8D415B464A4693404344F4
:1034D0009B4653469B1A9A465346002B0EDD534695
:1034E0000C2BCFDCD146CFE720235B1A2200DA4039
:1034F00013002A008A4017001F43D6E7009A019B59
:10350000AB4209DC01D1A24206D8009A019BA41A61
:103510009D4101239C46E344009A019BAB4209DC98
:1035200001D1A24206D8009A019BA41A9D41012311
:103530009C46E344002D0FDB002D16DB0F9B002B78
:1035400001D05A461A602000290005B0F0BCBB46E5
:10355000B246A946A046F0BD009A019BA4185D4161
:1035600001235B429C46E344E6E7009A019BA418D2
:103570005D4101235B429C46E344DFE7F0B5C6466C
:1035800000B58AB007900F0011001A00FE0F3B0D26
:103590005B055B0D3D032D0B8024640304902543E4
:1035A0000595D50FA846150D6D056D0D1203120B6F
:1035B000029114430394109A002A02D00022109919
:1035C0000A604A4A934200D17DE0002D00D17DE09F
:1035D000002B00D182E0954200D182E06A1E9A421F
:1035E00000DD80E044D0002E06D0049E059F00221E
:1035F0007142BA410491059209AA01925B1B0093A2
:10360000029A039B04980599FFF720FF06000F001C
:1036100003000C009B197C412200029803998C4204
:103620000BDC01D1834208D802998B420CD1039B59
:103630009A4209D1099BDB0706D5029B039CF61A27
:10364000A741099B013309934346002B02D0099BF4
:103650005B420993109B002B01D0099A1A60244AFF
:10366000521B30003900FFF769FE06000F002FE003
:10367000039B059999420FDD002E17D1029C039DF3
:1036800024196D4104980599001BA94106000F00FB
:10369000012309931500D7E7029B039C0598A042DC
:1036A00002D104999942E7D8079E11E0029E039F38
:1036B000B6197F41049B059CF61AA74101235B4282
:1036C00009931500C0E700260A4F01E00026094FC4
:1036D000300039000AB080BCB846F0BD0026002793
:1036E000F6E7079EF4E7079EF2E7C046FF070000F3
:1036F000330400000000F07F10B582B00024009475
:10370000FFF73CFF02B010BD07B56046002800D1AE
:1037100000BE01880A0A0230DF2AFAD1C9B2820843
:1037200004D3028840880004104300E00068024A85
:103730005050039007BD0000580B00200FB403BC8D
:103740000CBCF0B50124E407634000E0F0B50C0DBB
:10375000CF0F661E3605891B640503D3C94340425B
:1037600000D30131640D03D0661CF60A07D0E41BB8
:1037700000207F00791C89078912803C24031D0DDD
:10378000DF0F6E1E36059B1B6D0503D3DB435242D4
:1037900000D301336D0D03D06E1CF60A07D0ED1B6C
:1037A00000227F007B1C9B079B12803D2D032F1B5B
:1037B000661B58D4A446202E46DA20371400BC409D
:1037C0001D00BD40F24033412A4380185941CB0FC0
:1037D00005D0C943C0430022644250415141624672
:1037E0004D0D28D10D0D07D100281FD024194041BF
:1037F0004941013A0D0DF9D0640006D3013000D3E0
:103800000131002C01D140084000013A0BD4941C36
:10381000E40A04D112051144DB071944F0BDD907AD
:10382000204B194300E0D9070020F0BD0029DDD16D
:10383000002CDBD1F0BD0132C6074008CD0728437C
:103840004908002EE1D0D9E73C2E29DA203E403746
:103850001400BC4000D00124F24014431A00BB40C5
:103860001C43D317ACE7AC46202F08DA20360400FF
:10387000B4400D00B540F84039412843A5E73C2F3E
:103880000CDA203F40360400B44000D00124F84058
:1038900004430800B1400C43C117EAE710001900C7
:1038A000002494E70000F07FF0B50C0D661E36058D
:1038B000891BE60A6405640D02D0651CED0A04D07C
:1038C000002001210905803C2403A4461C0D671E2D
:1038D0003F05DB1BE70A6405640D02D0651CED0A99
:1038E00004D0002201231B05803C2403774064445C
:1038F00097B484B296B27443070C7E43150C6F43A1
:1039000080B26843361802D3012000043F18300407
:10391000350C00197D41844688B29AB250430C0C94
:1039200062431F0C7C438EB27E43921902D3012660
:103930003604A4191604170C3618674101BC81B26D
:103940009AB25143040C62431B0C5C4380B258434F
:10395000121802D30120000424181004130C40187C
:1039600063412D185E410020474106BC88B293B2E6
:1039700058430C0C6343120C544389B251435B18F7
:1039800002D301210904641819041A0C09186241B0
:103990006D1856410020474118BCF902720D1143C1
:1039A000F0026A0D1043ED020A0D03D16D1940417A
:1039B0004941013B124E9B1B7600B3420ED26D0073
:1039C00007D30130002671416646354301D14008D6
:1039D00040001B05C918E4072144F0BD0BDA013390
:1039E00006D1013004D101314F0D01D04908F2E771
:1039F000E1070020F0BD013631050020EBE70000B3
:103A0000FF030000F0B51C0D671E3F05DB1BE70A36
:103A10006405640D02D0661CF60A04D0002201235E
:103A20001B05803C2403D0252D060026F6432E6678
:103A30001E096E66CE0FF619B44649004F0D02D02E
:103A40007E1CF60A03D000200021403F3F033E1BAE
:103A5000B600B444013F7F05C91B49082E6F0136EB
:103A600076089C02950D25437543ED137543AD1300
:103A700001356D10F603761B0CB4CC02450D2C43BA
:103A8000A2B2B3B25A43270C7B43350C6F43A4B2A6
:103A90006C431B1902D3012424043F191C041D0C80
:103AA000A4187D4124196D41009A91B2ACB26143D2
:103AB000170C7C432B0C5F4392B25A43A41802D3D9
:103AC00001221204BF182204230C52187B41019CCE
:103AD0006C431B19520ED9010A434401A01A81B24A
:103AE000B2B2514303145A43360C734387B277433F
:103AF000D617D21900277E4136049B191704160CDD
:103B00007F185E417316ED18F3010026803375416E
:103B1000A90F06D16400690AE8055B0A184309D2B7
:103B20002FE00422944480337541A90AA8059B0A1A
:103B3000184326D3404149412404009A019B0D00BB
:103B40005543641B4343E41A95B286B27543170C80
:103B50007E43030C5F4392B25A43B61802D301224C
:103B60001204BF183204330C52197B4152429C415B
:103B7000002C02D40022013051414008CA071043F2
:103B8000490802B06246D7079210084BD218084B7A
:103B90009A4203D212058918C919F0BD0020002AE3
:103BA00001DC3900F0BD01331905F5E7FD03000024
:103BB000FE070000624618CA94465A46002A20DBD7
:103BC00004E0624618CA944600291ADAC018614116
:103BD0005B463B415C46B4405246FA402243444671
:103BE0004D4662416B41904699462B46B3403D415C
:103BF000FC401C4352465B46A241AB4192469B4669
:103C00007047C01AA1414B463B414C46B440424626
:103C1000FA40224354465D4662416B4192469B46C0
:103C20002B46B3403D41FC401C4342464B46A2411B
:103C3000AB41904699467047002000217047002212
:103C400000B5203200F011F8080000BD002200B5D8
:103C500000F00DF8CA179A4200D100BDD8430121E7
:103C6000C907414000BD000000220B15E4D410B587
:103C7000944600F077F81414013400DA0021CB17D1
:103C8000134C20476244343A0CD40C2A07DA04005F
:103C90009140904052422032D440214310BDD8433D
:103CA000D94310BD203207D40C46944052422032F2
:103CB0001141D040204310BD0800C917203203D461
:103CC00052422032104110BD1800190010BD0000F2
:103CD000853C001000210A00002104E000210A00B8
:103CE000C11704E00022002306E0C0460022CB17E3
:103CF00058405940C01A994130B5184CA21A0029B1
:103D000003D1010010D00020203A4C1512D104D26A
:103D1000013A001849414C0DFAD3114CA24204D289
:103D200012058918DB07C91830BDD243520D002097
:103D30000021F5E703D4013A00184941FBD50B32C5
:103D40004405C00A4D052843C90A640003D0002475
:103D500060416141E1E7E0D34408F8E73204000044
:103D6000FE0700000A0DCC0F531E1B05C91A520591
:103D700003D3C943404200D30131520D03D0531C39
:103D8000DB0A07D0121B00206400611C890789121E
:103D9000803A1203014BD21A70470000FF03000063
:103DA000023225D40C2A1CDA1125AD1A0B002B4146
:103DB000083207350600EE40904091403143F0CC88
:103DC00063431A1500235A41554356435743BF02D4
:103DD000F412760576196741ED177F19801BB941FA
:103DE00070470C220020C917490001310905DBE7A3
:103DF0000902030E194300025342203208D40C007A
:103E000019419440D840204300225041514170470D
:103E10000800C917203B2032F1D5002000210022E4
:103E20007047F0B5FFF7A8F900F006F800F046F883
:103E3000FFF7A8F9F0BD000000B5FFF793FF30A42D
:103E4000FFF7AEFF00242C4D2C4ED20702D3F643D1
:103E50006D426641520004D2A246A346A846B1462E
:103E600003E0A046A146AA46B3466EA4A446012795
:103E70001F26FFF7A6FE0137013E212FF9D100BD15
:103E8000594684B28DB26C43061475430B145E43DD
:103E900082B25A43AD18EA1700D7D2431204B618BB
:103EA0002A042B0C12197341404649469D009B176A
:103EB000920F2A43904199413E2218E7494684B225
:103EC0008DB26C43061475430B145E4382B25A43A1
:103ED000AD18EA1700D7D2431204B6182A042B0CE7
:103EE00012197341504659469D009B17920F2A4361
:103EF000504159413E22FAE6BB4DF09DC556F6367B
:103F00007D5100001A61140085880A00FB21190008
:103F1000F0B5FFF731F9404D0C002C4001D0AC4218
:103F200002D1090D090500201C002C4001D0AC4233
:103F300002D11B0D1B0500220026ED02002B04D52B
:103F400002266B40694000D476424F1904D599424D
:103F50000CDD0136694003E0BB4207DA013E6B40ED
:103F6000070010003A000F0019003B0040B4002A7F
:103F70000FD1002B0AD05C006415013409D14C002C
:103F80006415013402D10139013B02E00020002117
:103F90002EE0FFF737FD3E22FFF759FE82468B46A3
:103FA0000020002180460122920791461DA4A446CC
:103FB00001271F26FFF7FEFD0137013E212FF9D112
:103FC0004A4653460C3A01246407002752081B0056
:103FD00005D49341001979416408F7D104E05341B5
:103FE000001BB9416408F1D1CE07491040083043A5
:103FF00040BC002E0AD0094C094D01D5E443ED43E5
:10400000F60701D100196941001969413D22FFF706
:104010006EFEFFF7B7F8F0BD0000F07F8D305A88D4
:10402000A8F64332694FBB610567AC1DB16E40967F
:10403000FCBAAD0F72DB0BABA66EF50739BD9FE581
:1040400076ABFE034B6297BA5BD5FF01D694DBDDFE
:10405000AAFAFF005DEAEE5655FF7F006E77B7AA19
:10406000EAFF3F00BCBB5555FDFF1F00DEADAAAA0D
:10407000FFFF0F006F5555F5FFFF0700ABAAAAFE23
:10408000FFFF03005555D5FFFFFF0100ABAAFAFF64
:10409000FFFF00005555FFFFFF7F0000ABEAFFFF69
:1040A000FF3F000055FDFFFFFF1F0000ABFFFFFFBC
:1040B000FF0F0000F5FFFFFFFF070000FFFFFFFFFE
:1040C000FF030000000000000002000000000000EC
:1040D000000100000000000080000000000000005F
:1040E0004000000000000000200000000000000070
:1040F00010000000000000000800000000000000A8
:1041000004000000000000000200000000000000A9
:1041100001000000000000800000000000000040DE
:104120000000000051434343C9188C46110C83B270
:104130004B4310B4040C614392B280B250436243CB
:104140001C041B0C001910BC59411304120CC0189C
:10415000514161447047000070B513231D782A480F
:10416000FEF778FD0400012D11D0012D09DDA31EFD
:104170001B789B007F2B40DD80222100234800F02C
:1041800099F82348FEF75EFD224B186070BD54225B
:1041900001001E4800F08EF81F4B1A881F4B9A42F0
:1041A0001CD1A7239B011A881D4B9A4216D11D4B87
:1041B0001A881D4B9A4211D11C4B1A8894239B01DB
:1041C0009A420BD11A4B1A881A4B9A4206D11A4BB3
:1041D0001A681A4B9A4201D1152307E01848FDF7D7
:1041E000D5F899001748094A885001331F2BF8D990
:1041F000144A064B1A62DA61B7E7134B134A42219D
:104200001348FDF7A5F8C046534600005C0C00209B
:104210004C330000580C0020EE290000C40F0000B1
:10422000C20D0000962B0000C0B50000182B000046
:10423000CC2A000010B50000FC2C000051ED876472
:10424000FC52001055420010B4590010245A0010BE
:10425000E859001007B56046002800D100BE01886B
:104260000A0A0230DF2AFAD1C9B2820804D30288CE
:1042700040880004104300E00068024A5050039058
:1042800007BD00005C0C002010B500F071F910BDF6
:1042900010B500F033F910BD01480421014B184757
:1042A00030020020652C0010014B1B6818470000ED
:1042B00030020020014B5B681847000030020020EC
:1042C000F8B507000D001600437C002B02D0002437
:1042D00000200CE003681100280098472DE03B7C8B
:1042E00010E0022115483B689847601C0134B44235
:1042F00014DA002CF3DD2B19013B1B780D3B5A42DD
:104300005341DBB22A5D0A2AF0D1002BEED1A04244
:10431000E7DA211A28183B689847E2E7B04203DA47
:10432000311A28183B689847002E06DDAD19013D6B
:104330002B780D3B5A4253413B74F8BD7C5A001018
:1043400070B505000368002B16D00C4B1C6805E007
:10435000290004C92000FFF7B3FFE468002C09D04E
:104360002368002BF9D0064B1B68002BF0D0A3422A
:10437000F3D1EDE700232B6070BDC046380B002061
:10438000400B002070B505000C000B68802B05D099
:1043900021684B1C23606418257170BD0800FFF76D
:1043A000CFFFF5E710B582B0D0231B061C6801A92A
:1043B000064800F045FD002806D1019BA34203D02A
:1043C000024800F045FD012002B010BD800A002027
:1043D00010B5024800F01CFD10BDC046800A002048
:1043E000F0B5C64600B582B006000D001700FFF715
:1043F000D9FF80466B1C02D0184B1C6805E03000CA
:1044000000F0A2FB0500F7E7E468002C18D0236851
:10441000002BF9D0124B1B68002B01D0A342F3D123
:104420002A0031002000FFF74BFF002FECD06B4635
:10443000D91D0A230B7001222000FFF741FFE3E79B
:104440004346002B06D16B1E9D41E8B202B080BCF2
:10445000B846F0BDFFF7BCFFF5E7C046380B0020BB
:10446000400B002010B5064B1C6801E09847E4683B
:10447000002C03D06368002BF8D1F8E710BDC046CC
:10448000380B002070B5050000F05EFB040001222F
:1044900001002800FFF7A4FFFFF7E4FF200070BD34
:1044A00070B5A2B004000E00FFF77CFF0500842267
:1044B000002101A8FFF7F8FE3300220001A90848F7
:1044C000FEF7A8FB040001A8FFF73AFFFFF7CAFFB9
:1044D000002D02D1200022B070BDFFF779FFF9E76F
:1044E000854300100FB400B583B004A901C9019140
:1044F000FFF7D6FF03B008BC04B01847030010B59F
:104500000A0003490868190000F004F810BDC0460D
:104510004002002010B5514300F034F8041E0ED0C4
:104520000300083B5A6803239A43043A242A15D807
:104530000300132A05D800221A605A609A602000EE
:1045400010BD00210833016041601B2AF3D981604E
:10455000C160242A06D003001033ECE70021FFF7E6
:10456000A3FEECE70300016118334161E3E7C046B5
:1045700010B5034B0100186800F004F810BDC046E8
:1045800040020020F0B54E464546DE465746E0B5AF
:104590000D000B35060083B0162D22D8102900D946
:1045A000B2E000F0AFFA102518230220CB4FFB1821
:1045B0001A005C68083A944200D1B5E003236268AF
:1045C0009A431300E268A168CA6091600122E3186F
:1045D000596830000A435A6000F09CFA2000083005
:1045E00095E007239D4300D58EE0A94200D98BE0DA
:1045F00000F088FAFC235B009D4200D2A5E1680A26
:1046000000D18BE0042800D978E138239846A80926
:1046100080443930C100B14F79184C680839A14243
:104620000ED003239C4604E0002ACBDAE468A142C2
:1046300006D06246636893435A1B0F2AF4DD404656
:104640003A003C690832944200D178E00323616863
:10465000994389460B00491B0F2900DD79E17A61F6
:104660003A610029B2DA80229200914500D30EE12E
:104670005909DA0801238B40D2007968D2190B431B
:1046800091687B60E260A1609460CC60012182103F
:104690009140994259D80B4205D1032290434900D9
:1046A00004300B42FBD003239846C3009946B9441B
:1046B000CC4682466346DC68A44507D12AE1002A3D
:1046C00000DB33E1E468A44500D123E1424663689E
:1046D00093435A1B0F2AF2DD0120804661190543DE
:1046E0006560A068E5680837C560A860404610436B
:1046F000F960B9604860CF6030008F60E25000F030
:1047000009FA2000083002E00C230020336003B0D7
:10471000F0BCBB46B246A946A046F0BD80213F236F
:1047200040209846890076E7DC680230A34200D03A
:1047300044E73A003C690832944200D086E7012100
:104740007B68821091409942A5D90323BC686268B6
:104750009A439146954203D8531B0F2B00DD88E006
:1047600023004B445E4A01935E4B93461B681268DC
:10477000EB18013200D13BE15B4A944663441B0BCA
:104780001B0300933000009900F0CCF90300804631
:10479000013300D1F8E0019B834200D9F2E0534B92
:1047A00019009A460968009B8C46514663440B6089
:1047B00001991A00814200D150E15B461B68013328
:1047C00000D155E1434601995B1A9A1853461A6085
:1047D0000723424641461A400192194200D111E195
:1047E00008239846881A424B0099804441449B1AFA
:1047F0005B1A1B051B0D0091300019009B4600F051
:1048000091F9431C00D14FE14346C01A03005B44B9
:104810000093534652461B6801215B441360424695
:104820004046BA60009A0A434260BC4200D123E18C
:104830004A460F2A00D821E107200C3A82436068DB
:104840000140052011436160A118486088600F2A6B
:1048500000D934E1424644465268264908689842E5
:1048600000D20B6024490868984200D38EE00B60A8
:104870008CE0012229001343114365196160300067
:10488000BD606B6000F046F9200008303FE75A0A2F
:10489000042A71D9142A00D9C4E011005C325B31BA
:1048A000D20008235B429C46BA18944463469A6837
:1048B00003239846944500D19DE0434651689943AF
:1048C000494502D992689445F7D1D3689C467B68E4
:1048D0006146A260E1608C60D460D7E6700600207B
:1048E000780A0020F80A00200F100000C80A0020F3
:1048F00008100000F00A0020F40A0020142852D901
:10490000542800D996E06E239846280B80446F30D7
:10491000C10080E608239B46073BDC449B46DA4403
:1049200043465246134200D0C4E64CE00122E3184D
:10493000596830000A435A60E368A268D3609A60FD
:1049400000F0E8F820000830E1E62B00E808083322
:104950002CE6012360191D43656078613861C260EF
:1049600082601A004B460A4342603000E15000F07A
:10497000D1F820000830CAE69A09110039323831DE
:10498000D2008EE7BC4260D0BC68626803239A43C1
:10499000531B954202D80F2B00DD6AE7300000F070
:1049A000B9F80020B3E65B23984680445C30C10030
:1049B00031E608235B429C46E1444B469B68013844
:1049C0004B4500D098E043460342F2D17B688B43CD
:1049D0007B604900994200D9B7E6002904D1B4E6CA
:1049E000042294464900E2440B42F9D050465CE66A
:1049F00010330093C6E68910023B8B4079680B4365
:104A00007B6065E7009B300043445B421B051B0D48
:104A100019009B4600F086F8431C00D0F4E6002302
:104A20009B46F6E6542A2BD81A0B11006F326E31D2
:104A3000D20036E7AA235B0098422BD8DD3B98468C
:104A4000E80B80447830C100E5E52C4B009A9A468B
:104A50001B689C46534662441A60AEE6090500D0C6
:104A6000ABE6009ABC684A4401310A436260F4E64E
:104A70005B4642461A60ABE64446EEE641608DE78F
:104A8000AA2149008A4224D8DA0B11007832773102
:104A9000D20006E71A4B984224D87C239846A80CEB
:104AA00080447D30C100B6E5009A019B94464246A1
:104AB000083B63449B1A009300239B46A9E6210010
:104AC0003000083100F0BCF85346BC681B686268CF
:104AD000C3E60B498A420BD89A0C11007D327C3117
:104AE000D200DEE6FE217E237F209846890092E5F3
:104AF000FE227E219200D4E67B686AE7C80A002085
:104B00005405000010B5024800F07CF910BDC04605
:104B1000C40A002010B5024800F076F910BDC04666
:104B2000C40A0020002370B5064D040008002B6065
:104B3000FCF7EEFB431C00D070BD2B68002BFBD0B4
:104B40002360F9E73C0B002010B583070AD003006F
:104B5000032102E001330B4205D01A78002AF9D173
:104B6000181A10BD030019680C4A0D4C8A188A43A4
:104B700022420FD15968094A04338A188A432242D3
:104B800008D15968054A04338A188A432242F1D071
:104B900000E001331A78002AFBD1E1E7FFFEFEFEB8
:104BA00080808080F8B50C000500FFF7ABFF204F38
:104BB000BB685E6803239E431E4B341B9C466444C3
:104BC000240B013C113324039C4207DB0021280005
:104BD000FFF7A8FFBB689B19984204D02800FFF795
:104BE00099FF0020F8BD28006142FFF79BFF431C9E
:104BF0000DD00122BB68361B16435E600E4B2800A9
:104C00001A68141B1C60FFF785FF0120EAE70021EA
:104C10002800FFF787FFBA68831A0F2BDEDD0749EC
:104C20000968401A0449086001210B435360D5E725
:104C300070060020EF0F0000C80A0020780A00204C
:104C4000F0B5C64605000C0000B500294FD0FFF7AF
:104C500059FF210008394C68012622000320B24385
:104C60008F187B688343624898468368BB426AD04A
:104C700043467B6026421ED108239C460C68844430
:104C8000091B12198C6864454FD0CB68E3609C60A7
:104C90004346FC186468344211D1BB68554C424409
:104CA000A34200D17EE0FC68DC60A36001231343D3
:104CB0004B608A5006E0FC1864683442EDD016431D
:104CC0004E603A6080239B009A4213D25409D30865
:104CD0000122A2404468DB00224342601818836826
:104CE000C8608B608160D9602800FFF713FF80BC2B
:104CF000B846F0BD530A042B3ED894092600393437
:104D00003836E40004192368083C03279C4242D04B
:104D10005868B843904202D99B689C42F8D1DC683D
:104D2000CC608B60A160D960DEE74346F81840682C
:104D3000304257D1FB68B86842441643C36098605C
:104D40004E608A50D0E713004344264206D10A68D9
:104D5000891A8C689B18CA68E260946001221A4321
:104D60004A60254A816012689A42BDD8234B2800C8
:104D70001968FFF717FFB7E7142B07D9542B1AD878
:104D8000140B26006F346E36E400BBE71E005C3364
:104D90005B36DC00B6E70122B610B240466832430B
:104DA0004260BDE7D9609960CB608B6001231343FB
:104DB0004B608A5098E7AA246400A34205D8D40B1C
:104DC000260078347736E4009CE70D4CA34205D8E2
:104DD000940C26007D347C36E40093E7FE247E2686
:104DE000A4008FE7330013434B603A607CE7C04672
:104DF00070060020780600207C0A0020F80A0020B7
:104E0000540500007047C0467047C046F8B5C0461C
:104E100001B40248844601BC604700BF7101002014
:104E200001B40248844601BC604700BFBD010020B8
:104E300001B40248844601BC604700BFBD010020A8
:104E400001B40248844601BC604700BF2501002030
:104E500001B40248844601BC604700BFC100002085
:104E60006964202626206964203C3D20706F6F6CA9
:104E70002D3E686561702D3E6D61785F6E6F646573
:104E800073000000443A5C5250495C7069636F2DB6
:104E900073646B5C7372635C636F6D6D6F6E5C707B
:104EA00069636F5F74696D655C74696D652E63001D
:104EB000256C6C6420286869202530327829000030
:104EC0006964202626206964203C3D206865617065
:104ED0002D3E6D61785F6E6F64657300443A5C527D
:104EE00050495C7069636F2D73646B5C7372635CB3
:104EF000636F6D6D6F6E5C7069636F5F7574696C05
:104F00005C696E636C7564652F7069636F2F75746F
:104F1000696C2F70686561702E6800007061726541
:104F20006E745F69640000006368696C645F696443
:104F300000000000706172656E745F696420213D3D
:104F4000206368696C645F69640000002170685FB9
:104F5000636F6E7461696E7328706F6F6C2D3E683D
:104F60006561702C2072657573655F696429000046
:104F70006964000072656D6F7665645F6964203DE9
:104F80003D206E6578745F696400000063616C6C3D
:104F90006261636B00000000706F6F6C2D3E616C8E
:104FA00061726D5F696E5F70726F67726573732097
:104FB0003D3D206D616B655F7075626C69635F6913
:104FC000642869645F686967682C206E6578745F1F
:104FD000696429006964202626202170685F636F58
:104FE0006E7461696E7328686561702C206964292C
:104FF000000000006765745F656E7472795F6964B4
:105000005F6869676800000070685F6164645F746E
:105010006F5F667265655F6C6973740070685F616D
:1050200064645F6368696C645F6E6F646500000050
:1050300070685F696E7365727400000070685F6706
:1050400065745F6E6F6465006164645F616C61725A
:105050006D5F756E6465725F6C6F636B000000005E
:10506000616C61726D5F706F6F6C5F616C61726DAE
:105070005F63616C6C6261636B0000006765745F05
:10508000656E7472790000004861726477617265C0
:1050900020616C61726D20256420616C72656164B1
:1050A0007920636C61696D656400000074696D65E9
:1050B000725F68772D3E696E7473202620317520EB
:1050C0003C3C20616C61726D5F6E756D000000008C
:1050D000443A5C5250495C7069636F2D73646B5C39
:1050E0007372635C7270325F636F6D6D6F6E5C685C
:1050F000617264776172655F74696D65725C746911
:105100006D65722E6300000068617264776172657C
:105110005F616C61726D5F7365745F746172676506
:10512000740000006C6F636B5F6E756D203E3D20F8
:1051300030202626206C6F636B5F6E756D203C20DF
:105140004E554D5F5350494E5F4C4F434B530000FB
:10515000443A5C5250495C7069636F2D73646B5CB8
:105160007372635C636F6D6D6F6E5C7069636F5FAC
:1051700073796E635C6C6F636B5F636F72652E63D4
:10518000000000006C6F636B5F696E697400000063
:105190006D74782D3E636F72652E7370696E5F6CEF
:1051A0006F636B00443A5C5250495C7069636F2DC9
:1051B00073646B5C7372635C636F6D6D6F6E5C7058
:1051C00069636F5F73796E635C6D757465782E6368
:1051D000000000006D74782D3E6F776E65640000EE
:1051E0006D757465785F6578697400006D757465B8
:1051F000785F656E7465725F626C6F636B696E6712
:1052000000000000726F6F745F696400443A5C5282
:1052100050495C7069636F2D73646B5C7372635C7F
:10522000636F6D6D6F6E5C7069636F5F7574696CD1
:105230005C70686561702E63000000002170685F1B
:105240006765745F6E6F646528686561702C207295
:105250006F6F745F6964292D3E7369626C696E6754
:10526000000000002170685F6765745F6E6F6465A1
:1052700028686561702C20726F6F745F6964292DD6
:105280003E706172656E7400666F756E640000003A
:105290006E65775F7375625F7472656520213D206E
:1052A000686561702D3E726F6F745F696400000005
:1052B00070685F64656C65746500000070685F729B
:1052C000656D6F76655F616E795F6865616400002A
:1052D00070685F6164645F6368696C645F6E6F646B
:1052E0006500000070685F6765745F6E6F646500DD
:1052F0002C2066756E6374696F6E3A2000000000A2
:10530000617373657274696F6E2022257322206643
:1053100061696C65643A2066696C65202225732298
:105320002C206C696E65202564257325730A0000A6
:105330000A2A2A2A2050414E4943202A2A2A0A00B2
:105340000A0000007372635F66726571203E3D2043
:105350006672657100000000443A5C5250495C700E
:1053600069636F2D73646B5C7372635C7270325F20
:10537000636F6D6D6F6E5C68617264776172655F9B
:10538000636C6F636B735C636C6F636B732E630032
:10539000636C6F636B5F636F6E66696775726500E0
:1053A0006662646976203E3D2031362026262066DE
:1053B00062646976203C3D2033323000443A5C52CE
:1053C00050495C7069636F2D73646B5C7372635CCE
:1053D0007270325F636F6D6D6F6E5C68617264775F
:1053E0006172655F706C6C5C706C6C2E63000000A9
:1053F00028706F73745F64697631203E3D203120E0
:10540000262620706F73745F64697631203C3D20DE
:1054100037292026262028706F73745F64697632DE
:10542000203E3D203120262620706F73745F646912
:105430007632203C3D20372900000000706F7374E5
:105440005F64697632203C3D20706F73745F6469DD
:10545000763100007265665F6D687A203C3D2028D9
:1054600076636F5F66726571202F203136290000E8
:10547000706C6C5F696E69740000000021286465BF
:105480006C7461203E3E203131752900443A5C52F3
:1054900050495C7069636F2D73646B5C7372635CFD
:1054A0007270325F636F6D6D6F6E5C68617264778E
:1054B0006172655F6972715C6972712E63000000D0
:1054C00063757272656E74203D3D205F5F756E6816
:1054D000616E646C65645F757365725F697271207B
:1054E0007C7C2063757272656E74203D3D2068611E
:1054F0006E646C65720000006972715F68616E6451
:1055000065725F636861696E5F667265655F736C23
:105510006F745F68656164203E3D203000000000CC
:10552000767461626C655F68616E646C6572203D63
:105530003D205F5F756E68616E646C65645F757356
:1055400065725F6972710000212828282875696ECC
:10555000747074725F7429767461626C655F6861DF
:105560006E646C657229202D20282875696E747010
:1055700074725F74296972715F68616E646C6572C0
:105580005F636861696E5F736C6F747329202D208F
:1055900031292573697A656F66287374727563742F
:1055A000206972715F68616E646C65725F636861C7
:1055B000696E5F736C6F7429290000003078316365
:1055C000203D3D20282A696E7374293E3E31317595
:1055D0000000000021657863657074696F6E207C3F
:1055E0007C20657863657074696F6E203D3D206E28
:1055F000756D202B2031360066616C7365000000EC
:1056000069735F7368617265645F6972715F72610B
:10561000775F68616E646C657228736C6F745F6825
:10562000616E646C65722900657863657074696F7A
:105630006E0000006972715F6164645F7461696C1F
:105640005F746F5F667265655F6C697374000000FC
:10565000696E736572745F6272616E63685F616EBA
:10566000645F6C696E6B00006972715F72656D6F6B
:1056700076655F68616E646C657200006D616B6574
:105680005F6272616E6368007265736F6C76655FEE
:105690006272616E636800006972715F7365745F46
:1056A0006578636C75736976655F68616E646C6557
:1056B00072000000666E6900666E692B00000000D3
:1056C0006E616E00666E692D000000009E2600105F
:1056D0004E2600104E260010A82600104E26001060
:1056E0004E2600104E2600104E2600104E260010AA
:1056F0004E2600104E260010942600104E26001054
:105700008A2600104E2600104E260010802600101B
:1057100040270010662700107E2700106627001023
:10572000202700106627001066270010662700104B
:1057300066270010662700106627001066270010F5
:105740005C270010662700106627001066270010EF
:1057500066270010662700108A270010BA2B001059
:10576000D02B0010D02B0010D02B0010D02B00100D
:10577000D02B0010D02B0010D02B0010D02B0010FD
:10578000D02B0010D02B0010D02B0010D02B0010ED
:10579000D02B0010D02B0010D02B0010D02B0010DD
:1057A000D02B0010D02B0010D02B0010D02B0010CD
:1057B000D02B0010D02B0010D02B0010D02B0010BD
:1057C000D02B0010D02B0010D02B0010D02B0010AD
:1057D000D02B0010D02B0010D02B0010E22900108D
:1057E000A2290010E2290010D02B0010D02B0010AD
:1057F000D02B0010D02B0010D02B0010D02B00107D
:10580000D02B0010D02B0010D02B0010D02B00106C
:10581000D02B0010D02B0010D02B0010D02B00105C
:10582000D02B0010D02B001096270010D02B00108A
:10583000D02B0010D02B0010D02B0010D02B00103C
:10584000D02B0010D02B0010D02B0010D02B00102C
:1058500096270010322A001096270010E229001027
:10586000A2290010E2290010D02B0010962700106A
:10587000D02B0010D02B0010D02B0010D02B0010FC
:10588000D02B001096270010842B0010D02B001076
:10589000D02B0010AA2A0010D02B00109627001041
:1058A000D02B0010D02B0010962700100000000015
:1058B000000000000000F03F000000000000244055
:1058C00000000000000059400000000000408F4030
:1058D000000000000088C34000000000006AF8409B
:1058E0000000000080842E4100000000D0126341BF
:1058F0000000000084D797410000000065CDCD4135
:105900002A282875696E74385F74202A2928282867
:10591000766F6964202A29726F6D5F646174615FBC
:105920006C6F6F6B757028726F6D5F7461626C6500
:105930005F636F6465282753272C20274627292972
:10594000292D322929202A2034203E3D2053465F2C
:105950005441424C455F56325F53495A450000005E
:10596000443A5C5250495C7069636F2D73646B5CA0
:105970007372635C7270325F636F6D6D6F6E5C70BB
:1059800069636F5F646F75626C655C646F75626C90
:10599000655F696E69745F726F6D2E630000000051
:1059A0005F5F61656162695F646F75626C655F69A5
:1059B0006E6974002A282875696E74385F74202A0D
:1059C0002928726F6D5F7461626C652D3229292000
:1059D0002A2034203E3D2053465F5441424C455FCF
:1059E00056325F53495A4500443A5C5250495C7004
:1059F00069636F2D73646B5C7372635C7270325F8A
:105A0000636F6D6D6F6E5C7069636F5F666C6F6105
:105A1000745C666C6F61745F696E69745F726F6DE0
:105A20002E6300005F5F61656162695F666C6F6134
:105A3000745F696E697400004465627567000000F8
:105A4000312E302E300000007069636F00000000BE
:105A50006770696F70776D00466562203230203262
:105A60003032310006005250BBFF3CB6485A00109D
:105A700006005250D3F07542385A00100D0A00004B
:105A8000E8010010DC010010D0010010645A001081
:085A9000C4010010705A00105F
:105A980010B50368002B20D001230168EFF3108CA8
:105AA80072B60A68002AFCD0BFF35F8F0279002A19
:105AB80006D101230371D0231B061B684371130011
:105AC8000268BFF35F8F002111608CF31088002BF0
